{
  "_format": "hh-sol-artifact-1",
  "contractName": "AuthContract",
  "sourceName": "src/lib/contracts/AuthContract.sol",
  "abi": [
    {
      "anonymous": false,
      "inputs": [
        {
          "indexed": false,
          "internalType": "address",
          "name": "users",
          "type": "address"
        }
      ],
      "name": "UserAuthenticated",
      "type": "event"
    },
    {
      "inputs": [],
      "name": "authenticate",
      "outputs": [],
      "stateMutability": "nonpayable",
      "type": "function"
    },
    {
      "inputs": [
        {
          "internalType": "address",
          "name": "",
          "type": "address"
        }
      ],
      "name": "authenticatedUsers",
      "outputs": [
        {
          "internalType": "bool",
          "name": "",
          "type": "bool"
        }
      ],
      "stateMutability": "view",
      "type": "function"
    },
    {
      "inputs": [
        {
          "internalType": "address",
          "name": "user",
          "type": "address"
        }
      ],
      "name": "isAuthenticated",
      "outputs": [
        {
          "internalType": "bool",
          "name": "",
          "type": "bool"
        }
      ],
      "stateMutability": "view",
      "type": "function"
    }
  ],
  "bytecode": "0x608060405234801561001057600080fd5b506102db806100206000396000f3fe608060405234801561001057600080fd5b50600436106100415760003560e01c8063380c7a6714610046578063c13e1f2c14610050578063d15d415014610080575b600080fd5b61004e6100b0565b005b61006a60048036038101906100659190610218565b610140565b6040516100779190610260565b60405180910390f35b61009a60048036038101906100959190610218565b610160565b6040516100a79190610260565b60405180910390f35b60016000803373ffffffffffffffffffffffffffffffffffffffff1673ffffffffffffffffffffffffffffffffffffffff16815260200190815260200160002060006101000a81548160ff0219169083151502179055507fc33c48353ef54fd43cb788278ab804ec5fe708d0a0a7d9169563cdb83e01362733604051610136919061028a565b60405180910390a1565b60006020528060005260406000206000915054906101000a900460ff1681565b60008060008373ffffffffffffffffffffffffffffffffffffffff1673ffffffffffffffffffffffffffffffffffffffff16815260200190815260200160002060009054906101000a900460ff169050919050565b600080fd5b600073ffffffffffffffffffffffffffffffffffffffff82169050919050565b60006101e5826101ba565b9050919050565b6101f5816101da565b811461020057600080fd5b50565b600081359050610212816101ec565b92915050565b60006020828403121561022e5761022d6101b5565b5b600061023c84828501610203565b91505092915050565b60008115159050919050565b61025a81610245565b82525050565b60006020820190506102756000830184610251565b92915050565b610284816101da565b82525050565b600060208201905061029f600083018461027b565b9291505056fea264697066735822122058a6cfad9b394584afc2ff846c069c6f7a8ea2d20f6b7cb946c543bec0efbae064736f6c63430008180033",
  "linkReferences": {},
  "deployedLinkReferences": {}
}